:100000000C94492B0C947A2B0C947A2B0C947A2B0D
:100010000C947A2B0C947A2B0C947A2B0C947A2BCC
:100020000C947A2B0C947A2B0C947A2B0C947A2BBC
:100030000C947A2B0C947A2B0C9436890C947ABB02
:100040000C947A2B0C94F67E0C947A2B0C947A2BCD
:100050000C947A2B0C947A2B0C947A2B0C94A394FA
:100060000C947A2B0C94DAB40C947A2B0C947A2B93
:100070000C947A2B0C947A2B0C947A2B0C947A2B6C
:100080000C947A2B0C947A2B0C947A2B0C947A2B5C
:100090000C9496B40C947A2B0C947A2B0C947A2BA7
:1000A0000C947A2B0C947A2B0D9490180C947A2B38
:1000B0000C947A2B0C947A2B0C947A2B0C947A2B2C
:1000C0000C947A2B0C947A2B0C947A2B0C94E2B728
:1000D0000C947A2B0C947A2B0C947A2B0C947A2B0C
:1000E0000C947A2BBF94CD94DB94E894FA94019508
:1000F0004195239539956F9571956F9571956F958C
:100100007195739575954EC14EC151C14EC151C186
:1001100054C157C15EDB6FDB81DB8DDB96DBBFDB60
:1001200048DBDFDBF0DBECDB48DBF2DB0CDC1DDC8F
:100130002DDC9FF4A8F45FF448F422F4FCF6DAF422
:1001400086F53EF67DF691F6C0F6E50155017B0198
:10015000E101CD0113028701F9010D0215024901E8
:10016000CB010902A10113025901F701BB011102E0
:1001700053018D015D016B01F10177019101DF01F7
:10018000E701EB01C101E3018501F101C3016D014B
:10019000AD0169010302D101EF01B501FD01DD01EE
:1001A000B101810101029D017D01FF01B70107023B
:1001B0008F01C90151016F010502A301A7019B0134
:1001C000CF01AF01084AD73B3BCE016E84BCBFFDD7
:1001D000C12F3D6C74319ABD56833DDA3D00C77F17
:1001E00011BED9E4BB4C3E916BAAAABE00000080B0
:1001F0003F05A84CCDB2D44EB93836A9020C50B93F
:10020000918688083CA6AAAA2ABE000000803F0763
:10021000634236B79BD8A71A39685618AEBAAB55A1
:100220008C1D3CB7CC5763BD6DEDFD753EF6177266
:1002300031BF000000803F08000000BE9224491238
:100240003EABAAAA2ABECDCCCC4C3E00000080BE5C
:10025000ABAAAAAA3E00000000BF000000803F0039
:1002600000000000084178D3BB4387D1133D190E2D
:100270003CC3BD4282AD2B3E68EC8276BED98FE195
:10028000A93E4C80EFFFBE01C4FF7F3F000000008D
:1002900000000D94B4170D947D040D94D6170D94A1
:1002A00075040D94304D0D94B8190D949E170D944E
:1002B0000B180D94C8170D944C370D94C7190D9455
:1002C000FF2D0D94FD170D94753E0D94DB170D94C5
:1002D00062070D94971E0D94D1190D94361A0D9442
:1002E000254D0D942D370D94F4170D94D8490D9488
:1002F000DB190D9467490D948D170D94361F0D94DD
:10030000BA000D940B1F0D94AD0B0D94221A0D9491
:10031000A2170D947C050D9465010D94BD190D94E3
:10032000464D0D94E3190D94C1010D9408010D94EF
:100330001D020D94AA490D94F34C0D94301F0D9499
:10034000E0170D94C2170D94994D0D9431490D94F9
:10035000894D0D9492070D94040D0D94401A0D943F
:10036000A94C0D94FD1E0D946C040D94E31E0D9488
:10037000DD4A0D9464070D94D0170D9450060D942A
:10038000F9170D94091A0D942C1A0D94003F0D9431
:10039000EF170D943B4D0D94BA170D9497170D94CC
:1003A000C54C0D94B51E0D942D050D94560B0D9452
:1003B0003F760D945F060D94614A0D94EF1E0D94E7
:1003C000EB190D9491170D94181A0D949B170D9419
:1003D000F5190D94EA170D94FF190D94E5170D9476
:1003E000C71E0D944A1A0D94FE1A0D946B0B0D94B2
:1003F000CC170D94A6170D945B750D94E91E0D9402
:10040000441F0D94191F0D94A51E0D941A4D0D94A3
:10041000764D0D94BE170D94A8000D94AC170D9455
:10042000814A0D94B3190D94D5170D94B0176E61D0
:100430006E00696E66004E414E494E495459494E10
:1004400046CDCCCC3D0AD7233C17B7D13877CC2B3F
:10045000329595E6241FB14F0A000020410000C8E4
:100460004200401C4620BCBE4CCA1B0E5AAEC59D65
:100470007400407A10F35A00A0724E18090010A5BB
:10048000D4E80000E87648170000E40B54020000AE
:10049000CA9A3B000000E1F5050000809698000034
:1004A0000040420F000000A086010000001027005D
:1004B000000000E803000000006400000000000AE3
:1004C00000000000000100000000002C76D888DC4D
:1004D000674F0823DFC1DFAE59E1B1B796E5E3E42A
:1004E00053C63AE651997696E8E6C28426EB898CA3
:1004F0009B62ED407C6FFCEFBC9C9F40F2BAA56F05
:10050000A5F490055A2AF75C936B6CF9676DC11BD3
:10051000FCE0E40D47FEF520E6B500D0ED902E039B
:1005200000943577050080841E080000204E0A00E4
:100530000000C80C333333330F986E12831141EF30
:100540008D2114893BE65516CFFEE6DB18D1844B8E
:10055000381BF77C1D901DA4BBE424203284725EFE
:10056000228100C9F124ECA1E53D276364696E6F27
:1005700070737578585B00442D31202D20456E64D2
:100580006C657373206C6F6F700A00416476616EE6
:100590006365204B3D004B206F7574206F662061B2
:1005A0006C6C6F7765642072616E676521004D32F7
:1005B00032302053256900255346696C616D656EA4
:1005C000742073657474696E67733A20446973614B
:1005D000626C65640A00255346696C616D656E74D2
:1005E0002073657474696E67733A0A25532020205E
:1005F0004D3230302044252E32660A002553526594
:1006000074726163743A20533D4C656E6774682060
:10061000286D6D2920463A537065656420286D6DFC
:100620002F6D29205A3A205A4C69667420286D6D26
:10063000290A25532020204D3230372053252E32D1
:10064000662046252E3266205A252E32660A25530C
:100650005265636F7665723A20533D4578747261D6
:10066000206C656E67746820286D6D2920463A53AA
:100670007065656420286D6D2F6D290A2553202033
:10068000204D3230382053252E32662046252E321A
:10069000660A25534175746F2D52657472616374D7
:1006A0003A20533D3020746F2064697361626C6539
:1006B0002C203120746F20696E74657270726574BD
:1006C00020657874727564652D6F6E6C79206D6F1E
:1006D0007665732061732072657472616374732030
:1006E0006F72207265636F7665726965730A255350
:1006F0002020204D323039205325640A00255350E4
:100700004944206865617462656420736574746926
:100710006E67733A0A25532020204D333034205021
:10072000252E32662049252E32662044252E32663B
:100730000A0025535049442073657474696E6773C9
:100740003A0A25532020204D3330312050252E32B7
:10075000662049252E32662044252E32660A002561
:100760005353746570732070657220756E69743AA6
:100770000A255320204D39322058252E3266205923
:10078000252E3266205A252E32662045252E3266C9
:100790000A25534D6178696D756D206665656472D3
:1007A0006174657320286D6D2F73293A0A255320D3
:1007B000204D3230332058252E32662059252E32D6
:1007C00066205A252E32662045252E32660A25538C
:1007D0004D6178696D756D20616363656C657261EB
:1007E00074696F6E20286D6D2F7332293A0A255374
:1007F00020204D3230312058256C752059256C75DC
:10080000205A256C752045256C750A255341636374
:10081000656C65726174696F6E3A20533D61636304
:10082000656C65726174696F6E2C20543D726574DD
:100830007261637420616363656C65726174696F72
:100840006E0A255320204D3230342053252E326637
:100850002054252E32660A2553416476616E636505
:1008600064207661726961626C65733A20533D4D14
:10087000696E20666565647261746520286D6D2FF0
:1008800073292C20543D4D696E2074726176656C1D
:1008900020666565647261746520286D6D2F73290B
:1008A0002C20423D6D696E696D756D207365676DB5
:1008B000656E742074696D6520286D73292C20582D
:1008C0003D6D6178696D756D205859206A65726B50
:1008D00020286D6D2F73292C20205A3D6D61786979
:1008E0006D756D205A206A65726B20286D6D2F73AF
:1008F000292C2020453D6D6178696D756D2045205E
:100900006A65726B20286D6D2F73290A255320208C
:100910004D3230352053252E32662054252E326636
:100920002042252E32662058252E32662059252E4B
:100930003266205A252E32662045252E32660A253B
:1009400053486F6D65206F666673657420286D6D02
:10095000293A0A255320204D3230362058252E3290
:10096000662059252E3266205A252E32660A004608
:1009700025642025640A004D4D55203C3D20274626
:100980002564202564270A00504944204175746F6E
:1009900074756E652066696E6973686564212050A0
:1009A000757420746865206C617374204B702C2002
:1009B0004B6920616E64204B6420636F6E737461B9
:1009C0006E74732066726F6D2061626F7665206948
:1009D0006E746F20436F6E66696775726174696FBC
:1009E0006E2E6800504944204175746F74756E65B1
:1009F000206661696C6564212074696D656F75742A
:100A00000020403A00543A00423A00504944204104
:100A100075746F74756E65206661696C65642120FC
:100A200054656D706572617475726520746F6F20A6
:100A30006869676800204B643A2000204B693A20BF
:100A400000204B703A200020436C6173736963206F
:100A500050494420002054753A2000204B753A201C
:100A600000206D61783A2000206D696E3A200020E8
:100A7000643A200020626961733A200020453A0000
:100A8000205A3A0020593A0020453A00205A3A00AC
:100A900020593A00583A00002E0044656C6574698C
:100AA0006F6E206661696C65642C2046696C653ADE
:100AB000200046696C652064656C657465643A0065
:100AC0000A002F000A004E6F742053442070726990
:100AD0006E74696E67005072696E7420736176651A
:100AE00064005344207072696E7420706175736580
:100AF0006400222832290054004475706C696361D7
:100B0000746520542D636F64652069676E6F72652C
:100B1000642E0A004475706C696361746520542DFD
:100B2000636F64652069676E6F7265642E0A0049A1
:100B30006E76616C6964205420636F64652E005585
:100B40006E6B6E6F776E204D20636F64653A202563
:100B500073200A006E6F2076616C696420636F6D8C
:100B60006D616E64002C20002C20002C20006E2F64
:100B700061002C20002C20002C20006E2F61002F03
:100B800000503A005761697420666F722050494ED8
:100B90004441207461726765742074656D7065727C
:100BA00061747572653A004C414E472053454C20A4
:100BB000464F52434544002228312900303030301E
:100BC000303030302D303030302D303030302D302E
:100BD0003030302D30303030303030303030303018
:100BE0000020555549443A0031002045585452558B
:100BF0004445525F434F554E543A005072757361ED
:100C0000206933204D4B3200204D414348494E4529
:100C10005F545950453A00312E30002062617365AF
:100C200064206F6E204D61726C696E204649524D92
:100C3000574152455F55524C3A68747470733A2F5D
:100C40002F6769746875622E636F6D2F707275738C
:100C50006133642F50727573612D4669726D7761CF
:100C600072652050524F544F434F4C5F564552537C
:100C7000494F4E3A004649524D574152455F4E4109
:100C80004D453A50727573612D4669726D77617288
:100C90006520004D31313320530020423A00204579
:100CA0003A00543A0020503A002042403A00204096
:100CB0003A00202F003A00205400202F0020423A12
:100CC00000202F006F6B20543A002569206D696E5B
:100CD0002C2025692073656300496E76616C696418
:100CE000204D20636F64653A202573200A00556EFD
:100CF0006B6E6F776E204720636F64653A202573B3
:100D0000200A004D65736820626564206C65766515
:100D10006C696E67206E6F74206163746976652EEE
:100D2000000A002020000A4D656173757265642019
:100D3000706F696E74733A000A5A2073656172634A
:100D400068206865696768743A20002C004E756DEC
:100D500020582C593A2000206D6963726F6E730021
:100D600045786365737369766520626564206C6598
:100D700076656C696E6720636F7272656374696F04
:100D80006E3A2000426564206C6576656C696E671A
:100D9000206661696C65642E2053656E736F7220E6
:100DA00074726967676572656420746F6F20686923
:100DB00067682E0A00426564206C6576656C696E12
:100DC00067206661696C65642E2053656E736F726F
:100DD00020646973636F6E6E6563746564206F72FF
:100DE000206361626C652062726F6B656E2E0A0013
:100DF0004732382057300050494E44412070726FBE
:100E000062652063616C6962726174696F6E2073E0
:100E10007461727400473238205730004D3234000C
:100E2000472D636F646520736C6963656420666F2A
:100E300072206120646966666572656E74206C65F7
:100E400076656C2E20436F6E74696E75653F004742
:100E50002D636F646520736C6963656420666F72CF
:100E6000206120646966666572656E74206C6576C3
:100E7000656C2E20506C656173652072652D736CF6
:100E800069636520746865206D6F64656C206167B7
:100E900061696E2E205072696E742063616E6365A5
:100EA0006C6C65642E00472D636F646520736C69FC
:100EB00063656420666F722061206E6577657220BD
:100EC0006669726D776172652E20506C656173651D
:100ED0002075706461746520746865206669726D40
:100EE000776172652E205072696E742063616E6343
:100EF000656C6C65642E00472D636F646520736CB0
:100F00006963656420666F722061206E6577657223
:100F1000206669726D776172652E20436F6E746909
:100F20006E75653F00472D636F646520736C696360
:100F3000656420666F72206120646966666572650B
:100F40006E74207072696E74657220747970652E8B
:100F500020506C656173652072652D736C696365E3
:100F600020746865206D6F64656C20616761696ECF
:100F70002E205072696E742063616E63656C6C65BF
:100F8000642E00472D636F646520736C696365642C
:100F900020666F72206120646966666572656E7492
:100FA000207072696E74657220747970652E2043AA
:100FB0006F6E74696E75653F00472D636F646520C1
:100FC000736C6963656420666F7220612064696672
:100FD000666572656E74207072696E7465722074D5
:100FE0007970652E20436F6E74696E75653F00479A
:100FF0002D636F646520736C6963656420666F722E
:10100000206120646966666572656E74207072691D
:101010006E74657220747970652E20506C656173F2
:10102000652072652D736C69636520746865206D39
:101030006F64656C20616761696E2E205072696E05
:10104000742063616E63656C6C65642E005072651C
:101050007373206B6E6F6220746F207072656865A9
:101060006174206E6F7A7A6C6520616E6420636FA4
:101070006E74696E75652E00506C656173652070C5
:101080007265737320746865206B6E6F6220746F75
:1010900020756E6C6F61642066696C616D656E743D
:1010A0000052656D6F7665206F6C642066696C61B7
:1010B0006D656E7420616E64207072657373207448
:1010C0006865206B6E6F6220746F20737461727438
:1010D000206C6F6164696E67206E65772066696C4D
:1010E000616D656E742E00496E7365727420666959
:1010F0006C616D656E7400436F6C6F72206E6F74FF
:1011000020636F72726563740046696C616D656E11
:1011100074206E6F74206C6F616465640043686155
:101120006E67656420636F72726563746C793F00EB
:101130004C6F6164696E6720636F6C6F7200436807
:10114000616E676520737563636573732100506C0E
:1011500065617365206F70656E2069646C657220CF
:10116000616E642072656D6F76652066696C616D75
:10117000656E74206D616E75616C6C792E005761BF
:10118000732066696C616D656E7420756E6C6F613D
:1011900064207375636365737366756C3F00506C90
:1011A0006561736520757067726164652E004E65B8
:1011B00077206669726D77617265207665727369F2
:1011C0006F6E20617661696C61626C653A0057618F
:1011D0006974696E6720666F722050494E444120E1
:1011E00070726F626520636F6F6C696E670045781F
:1011F0007472756465720043686F6F7365206578FB
:101200007472756465723A0043686F6F7365206627
:10121000696C616D656E743A004E6F206D6F766516
:101220002E005761697420666F7220757365722E87
:101230002E2E00536F6D652070726F626C656D208D
:10124000656E636F756E74657265642C205A2D6CC3
:101250006576656C696E6720656E666F726365643E
:10126000202E2E2E00506C656173652072656D6FA7
:10127000766520737465656C207368656574206697
:10128000726F6D20686561746265642E00537461CD
:10129000626C6520616D6269656E742074656D7045
:1012A000657261747572652032312D323643206962
:1012B00073206E6565646564206120726967696486
:1012C000207374616E642069732072657175697230
:1012D00065642E00506C656173652072756E2058D0
:1012E000595A2063616C6962726174696F6E20661D
:1012F000697273742E0020436F756E7420583A2003
:10130000005344207072696E74696E67206279744C
:101310006520004E6F7420696E206661726D206DCD
:101320006F64652E00416374697665204578747238
:10133000756465723A2000496E76616C6964206557
:1013400078747275646572005A204F6666736574AE
:1013500000556E6B6E6F776E20636F6D6D616E649E
:101360003A2022004D32303020496E76616C69643B
:1013700020657874727564657220007A5F6D61789B
:101380003A20007A5F6D696E3A2000795F6D696E70
:101390003A20006F70656E005452494747455245E8
:1013A0004400785F6D696E3A20005265706F727408
:1013B000696E6720656E6473746F702073746174F6
:1013C00075730053494C454E54004E4F524D414C9D
:1013D000002553204D4F44453A2050657263656E99
:1013E0007420646F6E653A2025643B207072696ECC
:1013F000742074696D652072656D61696E696E67D0
:1014000020696E206D696E733A2025640A00456E6E
:10141000642066696C65206C697374004265676955
:101420006E2066696C65206C697374000A50494EC1
:1014300044412074656D70657261747572653A20FF
:10144000252E3166205A20736869667420286D6DD8
:10145000293A20252E3366000A537465703A2025F8
:10146000642F360A000A537465703A2025642F36BB
:101470002028736B6970706564290A50494E444195
:101480002074656D70657261747572653A202564AB
:10149000205A20736869667420286D6D293A300AD5
:1014A000000A5A45524F3A20252E33660A007374BB
:1014B0006172742074656D70657261747572653ADD
:1014C00020252E31660A0025642020252E32660054
:1014D000255320583A20252E356620593A20252EAE
:1014E0003566205A3A20252E35660A00536C65650C
:1014F000702E2E2E004E6F7420696E206661726D04
:10150000206D6F64652E0025640045303A25642007
:1015100052504D0A50524E303A25642052504D0AD6
:101520000025640058300A006164635F696E697465
:101530000A000A204F726967696E616C20507275EB
:1015400073612069330A2020205072757361205224
:101550006573656172636800436F6E74696E75656B
:10156000207769746820616E6F7468657220626F9D
:101570007764656E3F002500202020202020002079
:1015800020202020200045524153494E4720616CC5
:101590006C206461746100466163746F72792052DB
:1015A0004553455400466163746F72792052455328
:1015B000455400505255534133444657004D4B3229
:1015C00000C8004D4B3200C8004D617220313120FF
:1015D0003230323000436F6D70696C65643A2000C0
:1015E000286E6F6E652C2064656661756C7420636F
:1015F0006F6E66696729004D61722031312032308B
:1016000032302030303A30313A32350020332E3902
:101610002E302D5243312D333237320A007374612C
:101620007274002055706C6F616420696E20707256
:101630006F677265737300205A3A0020593A002090
:10164000583A004D3239005468657265206973203C
:101650007374696C6C2061206E65656420746F2002
:101660006D616B65205A2063616C69627261746997
:101670006F6E2E20506C6561736520666F6C6C6FA9
:101680007720746865206D616E75616C2C206368CD
:10169000617074657220466972737420737465702A
:1016A000732C2073656374696F6E2043616C69628B
:1016B000726174696F6E20666C6F772E005072696C
:1016C0006E74657220686173206E6F742062656548
:1016D0006E2063616C6962726174656420796574FF
:1016E0002E20506C6561736520666F6C6C6F77207F
:1016F000746865206D616E75616C2C206368617023
:101700007465722046697273742073746570732CEB
:101710002073656374696F6E2043616C69627261E6
:1017200074696F6E20666C6F772E004F6C64207347
:10173000657474696E677320666F756E642E2044DD
:10174000656661756C74205049442C20457374653E
:101750007073206574632E2077696C6C206265203D
:101760007365742E005761726E696E673A20626FFE
:101770007468207072696E74657220747970652067
:10178000616E64206D6F74686572626F617264204F
:1017900074797065206368616E6765642E005761B7
:1017A000726E696E673A207072696E746572207429
:1017B000797065206368616E6765642E0057617299
:1017C0006E696E673A206D6F74686572626F6172E0
:1017D000642074797065206368616E6765642E00AB
:1017E0002020506C616E6E6572427566666572424D
:1017F000797465733A20002046726565204D656DE9
:101800006F72793A2000207C20417574686F723ABB
:101810002000204C61737420557064617465643AD3
:10182000200020536F66747761726520526573657E
:101830007400205761746368646F67205265736534
:1018400074002042726F776E206F7574205265733A
:101850006574002045787465726E616C2052657302
:10186000657400506F7765725570006572726F72A3
:101870002077726974696E6720746F2066696C6581
:1018800000656E6473746F7073206869743A200029
:10189000446F6E6520736176696E672066696C655A
:1018A0002E006F6B0058595A2063616C6962726137
:1018B00074696F6E20616C6C2072696768742E2089
:1018C000536B65772077696C6C20626520636F725B
:1018D000726563746564206175746F6D61746963AA
:1018E000616C6C792E0058595A2063616C69627280
:1018F0006174696F6E20616C6C2072696768742E08
:1019000020582F5920617865732061726520736CAF
:10191000696768746C7920736B657765642E2047FE
:101920006F6F64206A6F62210058595A2063616C9E
:101930006962726174696F6E206F6B2E20582F5927
:101940002061786573206172652070657270656EC4
:10195000646963756C61722E20436F6E6772617487
:10196000756C6174696F6E73210058595A206361F8
:101970006C6962726174696F6E206661696C65641E
:101980002E204C6566742066726F6E742063616CE5
:101990006962726174696F6E20706F696E74206E17
:1019A0006F7420726561636861626C652E005859BE
:1019B0005A2063616C6962726174696F6E2066613E
:1019C000696C65642E2052696768742066726F6E58
:1019D000742063616C6962726174696F6E20706FEC
:1019E000696E74206E6F7420726561636861626CE9
:1019F000652E0058595A2063616C6962726174697E
:101A00006F6E206661696C65642E2046726F6E741D
:101A10002063616C6962726174696F6E20706F69B6
:101A20006E7473206E6F7420726561636861626C9E
:101A3000652E0058595A2063616C6962726174693D
:101A40006F6E206661696C65642E20506C656173F1
:101A50006520636F6E73756C7420746865206D61AA
:101A60006E75616C2E0058595A2063616C69627200
:101A70006174696F6E20636F6D70726F6D697365ED
:101A8000642E204C6566742066726F6E74206361EC
:101A90006C6962726174696F6E20706F696E742018
:101AA0006E6F7420726561636861626C652E0058A8
:101AB000595A2063616C6962726174696F6E206348
:101AC0006F6D70726F6D697365642E2052696768FF
:101AD000742066726F6E742063616C6962726174E7
:101AE000696F6E20706F696E74206E6F74207265FE
:101AF00061636861626C652E0058595A2063616C9D
:101B00006962726174696F6E20636F6D70726F6D60
:101B1000697365642E2046726F6E742063616C6910
:101B200062726174696F6E20706F696E7473206E7B
:101B30006F7420726561636861626C652E0058592C
:101B40005A2063616C6962726174696F6E206661AC
:101B5000696C65642E204265642063616C69627201
:101B60006174696F6E20706F696E74207761732085
:101B70006E6F7420666F756E642E00506C656173B5
:101B80006520706C61636520737465656C20736893
:101B9000656574206F6E20686561746265642E00EF
:101BA000496D70726F76696E67206265642063614B
:101BB0006C6962726174696F6E20706F696E740017
:101BC000497465726174696F6E2000446973746151
:101BD0006E6365206265747765656E207469702038
:101BE0006F6620746865206E6F7A7A6C6520616E0E
:101BF0006420746865206265642073757266616331
:101C00006520686173206E6F74206265656E207355
:101C10006574207965742E20506C6561736520664B
:101C20006F6C6C6F7720746865206D616E75616C88
:101C30002C20636861707465722046697273742029
:101C400073746570732C2073656374696F6E2046BE
:101C500069727374206C617965722063616C69626A
:101C6000726174696F6E2E00506C61636520612033
:101C70007368656574206F66207061706572207589
:101C80006E64657220746865206E6F7A7A6C652068
:101C9000647572696E67207468652063616C69623F
:101CA000726174696F6E206F66206669727374204A
:101CB0003420706F696E74732E20496620746865D5
:101CC000206E6F7A7A6C6520636174636865732037
:101CD0007468652070617065722C20706F77657212
:101CE000206F666620746865207072696E74657214
:101CF00020696D6D6564696174656C792E00206F73
:101D000066203400536561726368696E672062659E
:101D1000642063616C6962726174696F6E20706FB8
:101D2000696E7400206F662039004D6561737572AD
:101D3000696E67207265666572656E6365206865A9
:101D400069676874206F662063616C696272617490
:101D5000696F6E20706F696E7400506C6561736599
:101D600020636C65616E20746865206E6F7A7A6C92
:101D70006520666F722063616C6962726174696F5D
:101D80006E2E20436C69636B207768656E20646FEC
:101D90006E652E004175746F20686F6D650043613C
:101DA0006C63756C6174696F6E206F662074686512
:101DB000206D616368696E6520736B657720616E65
:101DC00064206F6666736574206661696C65642E55
:101DD00000203C20005741524E494E473A2046725F
:101DE0006F6E7420706F696E74206E6F74207265F0
:101DF00061636861626C652E205920636F6F726445
:101E0000696E6174653A0000497465726174696F46
:101E10006E3A200043616C6962726174696F6E2072
:101E20006661696C65642120436865636B20746832
:101E300065206178657320616E642072756E206123
:101E40006761696E2E00000E1315110E000000046C
:101E5000120912040000001C1F11111F00000006CF
:101E6000191803130C00040E1F041C000000040AC0
:101E70000A0A0A11110E001F1511151F000000019A
:101E800003161C0800000000110A04110A040C12B9
:101E9000120C000000002563252D31382E313853F7
:101EA000256300252E31305320002563252D313840
:101EB0002E3138732563002563252D2E31365320AE
:101EC000005B25735D2563005B25535D256300255D
:101ED00063252D31382E313853002563252E3135B9
:101EE000533A25732533640024F4D43050C38E2034
:101EF000C2A24017828B7011127A910D816CD90A9F
:101F0000A861E108C7586607615143061E4B5D058D
:101F1000C145A7041A411104093D980371393103E1
:101F20004036DB0265339102D4305402802E1D020C
:101F3000632CEE01752AC501B028A001102781018C
:101F40008F2564012B244B01E0223401AC211F01B9
:101F50008D200D01801FFC00841EED00971DDF0009
:101F6000B81CD200E61BC600201BBC00641AB200DD
:101F7000B219A8000A19A0006A189900D117910097
:101F800040178B00B516840031167E00B31579001A
:101F90003A157300C7146F0058146A00EE136600F8
:101FA0008813630025135E00C7125B006C12570094
:101FB00015125400C111510070114F0021114B0036
:101FC000D61049008D104700461044000210420010
:101FD000C00F4000800F3E00420F3C00060F3B0048
:101FE000CB0E3800930E37005C0E3500270E340000
:101FF000F30D3200C10D3100900D3000600D2E0048
:10200000320D2D00050D2C00D90C2B00AE0C290033
:10201000850C29005C0C2700350C27000E0C2600CF
:10202000E80B2400C40B2400A00B23007D0B23002D
:102030005A0B2100390B2100180B2000F80A1F0051
:10204000D90A1E00BB0A1E009D0A1D00800A1D0041
:10205000630A1C00470A1B002C0A1B00110A1A0005
:10206000F7091A00DD091900C4091900AB091900A4
:10207000920917007B091800630917004C09160024
:1020800036091600200916000A091500F508150082
:10209000E0081400CC081400B8081400A4081400C8
:1020A000900813007D0812006B08130058081200F6
:1020B000460812003408110023081100120811000C
:1020C00001081100F0071000E0071000D007100011
:1020D000C0071000B0070F00A107100091070E0005
:1020E00083070F0074070F0065070E0057070E00E7
:1020F00049070E003B070D002E070E0020070D00BC
:1021000013070D0006070D00F9060C00ED060D0083
:10211000E0060C00D4060C00C8060C00BC060C003F
:10212000B0060C00A4060B0099060C008D060B00EF
:1021300082060B0077060B006C060B0061060A0096
:1021400057060B004C060A0042060A0038060A0031
:102150002E060A0024060A001A060A0010060900C4
:1021600007060A00FD050900F4050900EB05090052
:10217000E2050900D9050900D0050900C7050900D5
:10218000BE050900B5050800AD050800A505090054
:102190009C050800940508008C05080084050800CB
:1021A0007C050800740508006C050700650508003B
:1021B0005D050700560508004E05070047050700A6
:1021C0004005080038050700310507002A0507000B
:1021D000230507001C050600160507000F0507006C
:1021E0000805060002050700FB040600F5040700C9
:1021F000EE040600E8040600E2040700DB04060023
:10220000D5040600CF040600C9040600C304060076
:10221000BD040600B7040600B1040500AC040600C6
:10222000A6040600A00405009B0406009504050012
:10223000900406008A040500850405008004060059
:102240007A04050075040500700405006B040500A0
:1022500066040500610405005C04050057040500E0
:10226000520405004D040500480405004304050020
:102270003E0404003A04050035040500300404005F
:102280002C04050027040400230405001E04040098
:102290001A04040016040500110404000D040400CF
:1022A000090405000404040000040400FC03040005
:1022B000F8030400F4030400F0030400EC0304003A
:1022C000E8030400E4030400E0030400DC0304006A
:1022D000D8030400D4030400D0030400CC0304009A
:1022E000C8030300C503030024F404D9201BC40C55
:1022F0005C0E9804C4095F0265077101F405F900DA
:10230000FB04B30048048700C1036900580355006B
:1023100003034500BE023A008402310053022A0042
:102320002902250004022000E4011C00C801190054
:10233000AF0117009801140084011300710110000F
:102340006101100051010E0043010D0036010B0028
:102350002B010B0020010B00150109000C010900E5
:1023600003010800FB000800F3000800EB00070071
:10237000E4000600DE000600D8000600D2000600D9
:10238000CC000500C7000500C2000500BD00040028
:10239000B9000400B5000400B1000400AD00040061
:1023A000A9000400A5000300A20003009F00040090
:1023B0009B000300980003009500020093000300B7
:1023C000900003008D0002008B00030088000200D3
:1023D0008600020084000300810002007F000200EA
:1023E0007D0002007B0002007900020077000100FE
:1023F0007600020074000200720001007100020009
:102400006F0002006D0001006C0002006A00010014
:10241000690002006700010066000100650001001C
:102420006400020062000100610001006000010020
:102430005F0002005D0001005C0001005B00010024
:102440005A00010059000100580001005700010026
:102450005600010055000100540001005300000027
:102460005300010052000100510001005000010022
:102470004F0001004E0000004E0001004D00010021
:102480004C0001004B0000004B0001004A0001001D
:102490004900010048000000480001004700010019
:1024A0004600000046000100450000004500010014
:1024B000440001004300000043000100420000000E
:1024C0004200010041000000410001004000010005
:1024D0003F0000003F0001003E0000003E00010000
:1024E0003D0000003D0001003C0000003C000000F9
:1024F0003C0001003B0000003B0001003A000000EE
:102500003A000100390000003900010038000000E5
:1025100038000000380001003700000037000100DB
:1025200036000000360000003600010035000000D3
:1025300035000000350001003400000034000000C8
:1025400034000100330000003300000033000100BC
:1025500032000000320000003200010031000000B3
:1025600031000000310001003000000030000000A8
:10257000300001002F0000002F0000002F0000009D
:102580002F0001002E0000002E0000002E00010090
:102590002D0000002D0000002D0000002D00010086
:1025A0002C0000002C0000002C0000002C0001007A
:1025B0002B0000002B0000002B0000002B0001006E
:1025C0002A0000002A0000002A0000002A00010062
:1025D0002900000029000000290000002900000057
:1025E0002900010028000000280000002800000049
:1025F000280000002800010027000000270000003C
:10260000270000002700000027000100260000002E
:102610002600000026000000260000002600010021
:102620002500000025000000250000002500000016
:102630002500000025000100240000002400000007
:1026400024000000240000002400010023000000FA
:1026500023000000230000002300000023000000EE
:1026600023000000230001002200000022000000DF
:1026700022000000220000002200000022000100D1
:1026800021000000210000002100000021000000C6
:1026900021000000210000002100010020000000B6
:1026A00020000000200000002000000020000000AA
:1026B0002000000020000000200001001F0000009A
:1026C0001F0000001F0000001F0000001F0000008E
:1026D0001F0000001F0001001E0000001E0000007F
:1026E0001E0000001E0000001000C90210012C0195
:1026F0004001220170011801B0010E01F001040136
:102700005002FA00B002F0003003E600D003DC0013
:102710009004D2007005C800A006BE000008B400F6
:10272000B009AA00D00BA000600E960060118C00CA
:102730000015820020197800C01D6E00A0226400E0
:10274000B0275A00902C500000314600E0343C0085
:1027500010383200903A2800603C1E00A03D140062
:10276000803E0A00203F000045303A20005A3A20BF
:1027700000593A2000583A20004D53312C4D533225
:102780002050696E730A004572723A204D494E54CA
:10279000454D50003A204578747275646572207317
:1027A00077697463686564206F66662E204D494EB4
:1027B00054454D50207472696767657265642021C5
:1027C000004572723A204D494E54454D50204245C5
:1027D000440054656D70657261747572652068653A
:1027E00061746564206265642073776974636865E9
:1027F00064206F66662E204D494E54454D5020741E
:1028000072696767657265642021004572723A20BB
:102810004D415854454D50003A20457874727564C6
:102820006572207377697463686564206F66662ECD
:10283000204D415854454D50207472696767657248
:1028400065642021004572723A204D415854454D2F
:1028500050204245440054656D7065726174757214
:1028600065206865617465642062656420737769BA
:102870007463686564206F66662E204D4158544528
:102880004D5020747269676765726564202100206D
:102890002D20496E76616C69642065787472756468
:1028A0006572206E756D62657220210070012C01C9
:1028B00090012701B0012201C0011D01F0011801A2
:1028C0001002130130020E0160020901900204019E
:1028D000C002FF000003FA004003F5008003F0008F
:1028E000D003EB002004E6007004E100E004DC000B
:1028F0004005D700C005D2004006CD00D006C80074
:102900008007C3003008BE00F008B900C009B40059
:10291000B00AAF00B00BAA00D00CA500000EA000BA
:10292000500F9B00C01096005012910000148C00B4
:10293000C0158700B0178200B0197D00D01B780049
:10294000001E730040206E0090226900F024640095
:1029500040275F0090295A00E02B5500102E5000B0
:1029600020304B0010324600E033410090353C00EF
:102970001037370070383200A0392D00B03A2800E7
:10298000A03B2300603C1E00103D1900903D140048
:10299000103E0F00703E0A00C03E0500003F0000E0
:1029A00020484F54454E4420544845524D414C20F8
:1029B00052554E41574159002048454154424544E3
:1029C00020544845524D414C2052554E4157415993
:1029D00000544845524D414C2052554E41574159A3
:1029E0000042454420544845524D414C2052554EDA
:1029F000415741590020544845524D414C205255B1
:102A00004E415741592028205052454845415420B5
:102A1000484F54454E44290020544845524D414C9E
:102A20002052554E41574159202820505245484583
:102A3000415420484541544245442900505245489C
:102A4000454154204552524F520042454420505275
:102A50004548454154204552524F5200222066615C
:102A6000696C65643A204275666665722066756CAD
:102A70006C21002200256920686F7572732025691A
:102A8000206D696E757465730054494D454F5554FA
:102A90003A004D3131300046756C6C20525820425E
:102AA000756666657200437573746F6D0054657862
:102AB00074757200536D6F6F74680047312059252B
:102AC0002D2E32662045252D2E33660047312058A5
:102AD00025642059252D2E32662045252D2E33665E
:102AE00000312E3000312E3500554E4B4E4F574E93
:102AF000004C413130433A204C696E65617220418F
:102B00006476616E6365206D6F64653A20004C41A8
:102B10003130433A2041646A757374656420452DF1
:102B20004A65726B3A2000656E717565696E672043
:102B30002200446F6E65207072696E74696E672042
:102B400066696C65004D3131322063616C6C65647F
:102B50002E20456D657267656E63792053746F70C2
:102B60002E005072696E7465722073746F70706598
:102B7000642064756520746F206572726F72732EA5
:102B80002046697820746865206572726F722061D2
:102B90006E6420757365204D39393920746F207249
:102BA0006573746172742E202854656D706572614E
:102BB000747572652069732072657365742E205375
:102BC000657420697420616674657220726573741F
:102BD000617274696E6729004E6F204C696E6520C2
:102BE0004E756D62657220776974682063686563ED
:102BF0006B73756D2C204C617374204C696E653A53
:102C000020004E6F20436865636B73756D20776994
:102C10007468206C696E65206E756D6265722C201B
:102C20004C617374204C696E653A2000636865637B
:102C30006B73756D206D69736D617463682C204CC6
:102C4000617374204C696E653A20004C696E652092
:102C50004E756D626572206973206E6F74204C61D1
:102C60007374204C696E65204E756D6265722B31F0
:102C70002C204C617374204C696E653A20005354CB
:102C80004F505045442E200020746F6F206C6F6EA3
:102C90006720657874727573696F6E2070726576DF
:102CA000656E7465640020636F6C6420657874726F
:102CB0007573696F6E2070726576656E74656400F9
:102CC0005553415254322072782046756C6C212144
:102CD000210A0053657474696E67732053746F72B0
:102CE00065640053746F7265642073657474696EF3
:102CF00067732072657472696576656400486172F5
:102D000064636F6465642044656661756C74205308
:102D1000657474696E6773204C6F616465640056F6
:102D20003200000000C8420000C8420000C843CD85
:102D30004C21430000FA430000FA430000404100E8
:102D400000F0422823000028230000F401000010B6
:102D50002700000080BB440080BB4400000000004E
:102D6000000000204E00000000204100002041CD66
:102D7000CCCC3E00009040000000000000000000AD
:102D8000000000CDCCCC3E33B32342EA784C3FF474
:102D90005A03448F42FC42E65A343F4C62B045002D
:102DA000000000004040000034420000000000002D
:102DB000000000000041000000E03F00002C430044
:102DC000002C43000040410000F042C0030000C05E
:102DD000030000C80000008813000010101010004D
:102DE000007A43000052430000524300000000CD2F
:102DF000CC0CC09A99193E00000000CDCC0CC09AB2
:102E000099193E67636F64655F4D373031206265A5
:102E100067696E0A0050494E44410054656D706503
:102E2000726174757265730053656E736F72206999
:102E30006E666F00457874727564657220696E669F
:102E40006F0058595A2063616C2E20646574616963
:102E50006C7300756E6B6E6F776E004D4D55322042
:102E6000636F6E6E656374656400446174653A00F7
:102E7000686F77746F2E707275736133642E636F31
:102E80006D00666F72756D2E707275736133642E8E
:102E9000636F6D00707275736133642E636F6D00C4
:102EA000746F20756E6C6F61642066696C616D650E
:102EB0006E7400746F206C6F61642066696C616D64
:102EC000656E7400507265737320746865206B6E54
:102ED0006F62003E43616E63656C005072656865A9
:102EE0006174696E6720746F206375740050726539
:102EF00068656174696E6720746F20656A656374C4
:102F00000050726568656174696E6720746F207522
:102F10006E6C6F61640050726568656174696E679C
:102F200020746F206C6F616400436F6F6C646F7707
:102F30006E005072656865617420746865206E6FFC
:102F40007A7A6C6521004552524F523A0046696CBC
:102F5000616D656E7420657874727564696E672042
:102F600026207769746820636F72726563742063CA
:102F70006F6C6F723F005072696E742074696D657A
:102F80000046696C616D656E7420757365640054EC
:102F90006F74616C207072696E742074696D650065
:102FA000546F74616C2066696C616D656E7400525B
:102FB00069676874004C65667400592064697374AD
:102FC000616E63652066726F6D206D696E0053657A
:102FD0007665726520736B65773A00536C69676834
:102FE0007420736B65773A004D6561737572656423
:102FF00020736B6577005B303B305D20706F696ECE
:1030000074206F666673657400466C61736841690D
:103010007220495020416464723A004D4D5532206F
:103020002020202020204E2F410025642E25642EB4
:1030300025642D2564002046573A004D61722031E9
:1030400031203230323000453344763666756C6C50
:103050000052414D426F31336100315F37356D6D44
:103060005F4D4B32002D2D2D2D2D2D2D2D2D2D2D48
:103070002D0020332E392E302D5243312D3332374F
:1030800032004669726D776172653A0025642E25BB
:10309000642E25642E2564004D373032004D3730C4
:1030A00031004D373032004D37303100464C4558F5
:1030B000202D20203233302F35300050502020205A
:1030C0002D20203235342F313030004849505320E4
:1030D0002D20203232302F31303000414253202019
:1030E0002D20203235352F31303000415341202002
:1030F0002D20203236302F313035005045542020DD
:103100002D20203234302F393000504C4120202DDA
:1031100020203231352F3535006E6F7A7A6C65207C
:103120002D20203235302F30006661726D20202036
:103130002D20203235302F383000252D31322E31E0
:103140003253252B382E31660045787472756465CC
:10315000723A006D6D005900580025533A0A253126
:10316000382E32666D200A25533A0A2531306C64B8
:1031700068202530326868646D20253032686864C4
:10318000730025533A0A2531382E32666D200A2500
:10319000533A0A2531306C64642025303268686403
:1031A00068202530326868646D0025362E32666DE1
:1031B0006D0025533A0A25530A25533A0A25533AF6
:1031C0000025332E3266010025533A0A25530A257D
:1031D0002D31352E31355325332E3266010A252DFA
:1031E00031352E31355325332E3266010048656165
:1031F00074696E672064697361626C6564206279CA
:10320000207361666574792074696D65722E005053
:103210006C65617365207761697400496E616374E0
:1032200069766974792053687574646F776E004BA2
:10323000494C4C45442E20005072696E74657220D2
:1032400068616C7465642E206B696C6C282920633E
:10325000616C6C656421004B494C4C3A2025640A32
:10326000004D32323120496E76616C696420657898
:1032700074727564657220004D32313820496E7663
:10328000616C696420657874727564657220004DA4
:1032900031303920496E76616C69642065787472CA
:1032A0007564657220004D31303520496E76616C51
:1032B000696420657874727564657220004D3130E0
:1032C0003420496E76616C69642065787472756427
:1032D0006572200020573A0020453A00543A005ABF
:1032E000206C6976652061646A757374206F7574EB
:1032F000206F662072616E67652E20536574746955
:103300006E6720746F20302E20436C69636B2074CD
:103310006F20636F6E74696E75652E005A206C693C
:1033200076652061646A757374206F7574206F66AA
:103330002072616E67652E2053657474696E672014
:10334000746F20300020423A0020453A00543A0081
:10335000627573793A2070617573656420666F7267
:1033600020696E70757400627573793A20706175AA
:1033700073656420666F7220757365720062757381
:10338000793A2070726F63657373696E6700527566
:103390006E6E696E672057697A6172642077696C16
:1033A0006C2064656C6574652063757272656E74FB
:1033B0002063616C6962726174696F6E20726573FB
:1033C000756C747320616E6420737461727420660E
:1033D000726F6D2074686520626567696E6E696ED4
:1033E000672E20436F6E74696E75653F005072657D
:1033F00068656174696E67206E6F7A7A6C652E20DD
:10340000506C6561736520776169742E004C6F6143
:1034100064696E672066696C616D656E7400506CDE
:103420006561736520696E736572742066696C618D
:103430006D656E7420696E746F20746865206578A0
:103440007472756465722C207468656E2070726584
:10345000737320746865206B6E6F6220746F206CCC
:103460006F61642069742E00506C6561736520691A
:103470006E736572742066696C616D656E74206927
:103480006E746F2074686520666972737420747539
:103490006265206F6620746865204D4D552C207440
:1034A00068656E20707265737320746865206B6E3A
:1034B0006F6220746F206C6F61642069742E0054F9
:1034C0006865207072696E7465722077696C6C2013
:1034D0007374617274207072696E74696E672061B2
:1034E000207A69672D7A6167206C696E652E20529B
:1034F0006F7461746520746865206B6E6F622075EF
:103500006E74696C20796F752072656163682074D0
:103510006865206F7074696D616C206865696768A3
:10352000742E20436865636B20746865207069633E
:10353000747572657320696E207468652068616EA9
:1035400064626F6F6B202843616C69627261746999
:103550006F6E2063686170746572292E0053656C0C
:103560006563742074656D70657261747572652031
:103570007768696368206D61746368657320796F2B
:103580007572206D6174657269616C2E0043686F9D
:103590006F736520612066696C616D656E7420666D
:1035A0006F7220746865204669727374204C61796B
:1035B00065722043616C6962726174696F6E20612B
:1035C0006E642073656C65637420697420696E2075
:1035D000746865206F6E2D73637265656E206D650E
:1035E0006E752E004E6F7720492077696C6C2063D2
:1035F000616C6962726174652064697374616E6381
:1036000065206265747765656E20746970206F66E9
:1036100020746865206E6F7A7A6C6520616E642014
:103620006865617462656420737572666163652E96
:1036300000596F752063616E20616C77617973202A
:10364000726573756D65207468652057697A61725B
:10365000642066726F6D2043616C69627261746987
:103660006F6E202D3E2057697A6172642E00506C77
:103670006561736520636865636B206F7572206890
:10368000616E64626F6F6B20616E64206669782082
:103690007468652070726F626C656D2E2054686569
:1036A0006E20726573756D65207468652057697A40
:1036B000617264206279207265626F6F74696E67EF
:1036C00020746865207072696E7465722E00416C9A
:1036D0006C20697320646F6E652E2048617070796C
:1036E000207072696E74696E672100496620796F77
:1036F000752068617665206164646974696F6E61C4
:103700006C20737465656C207368656574732C2018
:1037100063616C69627261746520746865697220A6
:103720007072657365747320696E20536574746973
:103730006E6773202D204857205365747570202DB7
:1037400020537465656C207368656574732E005032
:103750006C6561736520636C65616E20686561747A
:1037600062656420616E64207468656E20707265A5
:10377000737320746865206B6E6F622E00446F2037
:10378000796F752077616E7420746F207265706533
:103790006174206C617374207374657020746F2081
:1037A000726561646A7573742064697374616E63B1
:1037B00065206265747765656E206E6F7A7A6C65D8
:1037C00020616E6420686561746265643F005365C2
:1037D0006C656374206E6F7A7A6C652070726568B0
:1037E0006561742074656D706572617475726520B1
:1037F0007768696368206D61746368657320796FA9
:103800007572206D6174657269616C2E0049732058
:1038100066696C616D656E74206C6F616465643F90
:103820000049732066696C616D656E74206C6F6110
:103830006465643F004E6F7720492077696C6C2087
:1038400070726568656174206E6F7A7A6C65206647
:103850006F7220504C412E00497320737465656C63
:10386000207368656574206F6E2068656174626599
:10387000643F00492077696C6C2072756E207A2055
:1038800063616C6962726174696F6E206E6F772E0E
:10389000004E6F772072656D6F76652074686520C5
:1038A00074657374207072696E742066726F6D2017
:1038B000737465656C2073686565742E00506C6563
:1038C0006173652072656D6F7665207368697070CD
:1038D000696E672068656C706572732066697273C3
:1038E000742E00492077696C6C2072756E2078798F
:1038F0007A2063616C6962726174696F6E206E6FA9
:10390000772E2049742077696C6C2074616B652078
:10391000617070726F782E203132206D696E732E57
:103920000046697273742C20492077696C6C207290
:10393000756E207468652073656C66746573742099
:10394000746F20636865636B206D6F737420636FA1
:103950006D6D6F6E20617373656D626C792070722E
:103960006F626C656D732E0048692C204920616D73
:1039700020796F7572204F726967696E616C205093
:1039800072757361206933207072696E7465722E6E
:1039900020576F756C6420796F75206C696B65209A
:1039A0006D6520746F20677569646520796F752077
:1039B0007468726F756768207468652073657475C4
:1039C000702070726F636573733F0053706F6F6C1C
:1039D0004A6F696E004669726D77617265004D6F5E
:1039E00064656C00537472696374005761726E0091
:1039F0004857205365747570004857205365747597
:103A00007000436865636B73004E6F7A7A6C652053
:103A1000642E00537465656C20736865657473006B
:103A20004E6F6E6500416C70686162657400546928
:103A30006D6500536F727400466C61736841697202
:103A400000534420636172640054656D702E2063DE
:103A5000616C2E004D65736820626564206C65762C
:103A6000656C696E67004857205365747570004631
:103A7000616E7320636865636B0044697361626C97
:103A800065207374657070657273004D6F76652084
:103A9000617869730054656D7065726174757265E3
:103AA0000054656D702E2063616C69627261746987
:103AB0006F6E0052657365742058595A2063616CAB
:103AC0006962722E0053686F7720656E642073748C
:103AD0006F7073005049442063616C696272617455
:103AE000696F6E00426564206C6576656C20636F5B
:103AF0007272656374004D65736820426564204C82
:103B00006576656C696E670043616C6962726174A9
:103B100065205A0043616C6962726174652058596E
:103B20005A0053656C667465737420202020202031
:103B30002020200057697A6172640057697A6172A7
:103B40006420656E642073746174653A2025640A8C
:103B50000057697A6172642073746174653A202534
:103B6000640A0044697361626C65206661726D204D
:103B70006D6F6465004661726D206E756D62657271
:103B8000004D3834004D3434004732382057005847
:103B90003A00593A005A3A002563252D31332E3127
:103BA0003353252B352E33660020003E003E002087
:103BB000003E003E0054656D7065726174757265FB
:103BC0002063616C6962726174696F6E20666169FD
:103BD0006C65642E20436F6E74696E75652077691D
:103BE0007468207072657373696E672074686520ED
:103BF0006B6E6F622E0054656D70657261747572C4
:103C0000652063616C6962726174696F6E20646FB4
:103C10006E652E20436F6E74696E756520776974CA
:103C200068207072657373696E6720746865206BB5
:103C30006E6F622E005A30005A31005930005931EF
:103C400000583000583100456E642073746F7073F3
:103C500020646961670041646A757374696E6720E6
:103C60005A3A005265736574005265617220736937
:103C70006465205B756D5D0046726F6E74207369BC
:103C800064655B756D5D0052696768742073696473
:103C9000655B756D5D004C656674207369646520B5
:103CA0005B756D5D005365742074656D7065726140
:103CB000747572653A0057616974696E6720666F42
:103CC00072206E6F7A7A6C6520616E642062656422
:103CD00020636F6F6C696E6700417265206C65666A
:103CE0007420616E64207269676874205A7E636113
:103CF0007272696167657320616C6C2075703F003A
:103D000043616C6962726174696E672058595A2EFA
:103D100020526F7461746520746865206B6E6F62E9
:103D200020746F206D6F766520746865205A20635B
:103D30006172726961676520757020746F207468A4
:103D40006520656E642073746F70706572732E20C9
:103D5000436C69636B207768656E20646F6E652EB7
:103D60000043616C6962726174696E67205A2E202B
:103D7000526F7461746520746865206B6E6F622089
:103D8000746F206D6F766520746865205A206361BA
:103D900072726961676520757020746F2074686540
:103DA00020656E642073746F70706572732E20438B
:103DB0006C69636B207768656E20646F6E652E009A
:103DC00054656D70657261747572652063616C69AC
:103DD00062726174696F6E206661696C656400541B
:103DE000656D70657261747572652063616C69627E
:103DF000726174696F6E2069732066696E69736899
:103E0000656420616E64206163746976652E205458
:103E1000656D702E2063616C6962726174696F6E8A
:103E20002063616E2062652064697361626C656401
:103E300020696E206D656E752053657474696E67B8
:103E4000732D3E54656D702E2063616C2E004952B7
:103E50003A0046494E44413A0050494E44413A00E6
:103E600053656E736F722073746174650020203027
:103E7000002020310000002110422063308440A542
:103E800050C660E770088129914AA16BB18CC1AD21
:103E9000D1CEE1EFF13112100273325222B55294B9
:103EA00042F772D662399318837BB35AA3BDD39C71
:103EB000C3FFF3DEE36224433420040114E664C745
:103EC00074A44485546AA54BB528850995EEE5CFC1
:103ED000F5ACC58DD55336722611163006D776F659
:103EE000669556B4465BB77AA719973887DFF7FE11
:103EF000E79DD7BCC7C448E5588668A778400861E5
:103F00001802282338CCC9EDD98EE9AFF948896960
:103F1000990AA92BB9F55AD44AB77A966A711A50F8
:103F20000A333A122AFDDBDCCBBFFB9EEB799B58B0
:103F30008B3BBB1AABA66C877CE44CC55C222C0384
:103F40003C600C411CAEED8FFDECCDCDDD2AAD0B00
:103F5000BD688D499D977EB66ED55EF44E133E3298
:103F60002E511E700E9FFFBEEFDDDFFCCF1BBF3A50
:103F7000AF599F788F8891A981CAB1EBA10CD12D3F
:103F8000C14EF16FE18010A100C230E32004502542
:103F90004046706760B9839893FBA3DAB33DC31CB6
:103FA000D37FE35EF3B1029012F322D23235421492
:103FB0005277625672EAB5CBA5A89589856EF54F02
:103FC000E52CD50DC5E234C324A0148104667447E2
:103FD0006424540544DBA7FAB79987B8975FE77E56
:103FE000F71DC73CD7D326F2369106B01657667632
:103FF00076154634564CD96DC90EF92FE9C899E9A2
:10400000898AB9ABA94458654806782768C018E181
:10401000088238A3287DCB5CDB3FEB1EFBF98BD8F5
:104020009BBBAB9ABB754A545A376A167AF10AD0D1
:104030001AB32A923A2EFD0FED6CDD4DCDAABD8B41
:10404000ADE89DC98D267C076C645C454CA23C8321
:104050002CE01CC10C1FEF3EFF5DCF7CDF9BAFBA95
:10406000BFD98FF89F176E367E554E745E932EB271
:104070003ED10EF01E7C3C3E3F2F2A225C0045784C
:10408000747275646572004D6F7665205A004D6FCD
:1040900076652059004D6F766520580043616C6944
:1040A000627261746500536865657420252E3773EC
:1040B0000A5A206F66667365743A20252B312E33B9
:1040C00066206D6D0A2563436F6E74696E75650AAF
:1040D000256353746172742066726F6D207A657205
:1040E0006F00506C65617365206C6F616420666958
:1040F0006C616D656E742066697273742E0049730D
:104100002066696C616D656E74206C6F61646564B6
:104110003F0043616E63656C0046696C616D656E5E
:10412000740053656C6563742066696C616D656EBF
:10413000743A00473830004D3435004D3435205A3C
:104140000047373600457872656D65207370616E83
:10415000206F6620746865205A2076616C756573DF
:1041600021006F6B0A0073746172740A004D4D5523
:1041700032206669726D7761726520766572736947
:104180006F6E20696E76616C69642E205265717560
:10419000697265642076657273696F6E3A20627524
:1041A000696C64206E756D626572202564206F7283
:1041B000206869676865722E006673656E736F723A
:1041C0005F636865636B706F696E745F7072696E50
:1041D000740A00256400410A004D363030004D3627
:1041E0003030204155544F002568687500410A0061
:1041F00050300A004D25640A0057300A0053330A34
:104200000052300A004B25640A004525640A005517
:10421000300A0043300A004C25640A005425640A21
:10422000004D4D55202D20454E41424C4544002522
:104230006868750050300A004D310A0050300A009D
:104240004D4D552076657273696F6E2076616C698D
:10425000640025750053320A002575004D4D552028
:104260006E6F7420726573706F6E64696E67202D57
:104270002044495341424C45440053310A004265B1
:1042800064206C6576656C696E67206661696C6533
:10429000642E2053656E736F72206469646E74209F
:1042A000747269676765722E204465627269732053
:1042B0006F6E206E6F7A7A6C653F20576169746902
:1042C0006E6720666F722072657365742E00506C85
:1042D0006561736520757064617465206669726DCF
:1042E0007761726520696E20796F7572204D4D552A
:1042F000322E2057616974696E6720666F72207272
:10430000657365742E004739390044697361626CC6
:1043100065206661726D206D6F64653F00252D39E3
:104320002E39535B002563252D31382E3138732506
:1043300063004661726D206E756D626572004D3668
:104340003030004C6F616420616C6C00456A6563BD
:10435000742066696C616D656E7400506C65617384
:10436000652070756C6C206F75742066696C616D6A
:10437000656E7420696D6D6564696174656C790042
:10438000556E6C6F6164696E672066696C616D65FE
:104390006E7400526573756D696E67207072696E18
:1043A000740052657365740052656E616D650046F8
:1043B00069727374206C617965722063616C2E0080
:1043C00053656C65637400537465656C2073686530
:1043D00065747300536865657400537570706F720F
:1043E00074004661696C207374617473204D4D557F
:1043F00000537461746973746963732020004361AE
:104400006C6962726174696F6E00456A65637420DD
:1044100066696C616D656E7400556E6C6F616420C9
:1044200066696C616D656E74004C6F616420746FB9
:10443000206E6F7A7A6C65004C6F61642066696CDF
:10444000616D656E74004E6F205344206361726429
:10445000005072696E742066726F6D205344005272
:104460006573756D65207072696E74005061757347
:1044700065207072696E7400526573756D65207089
:1044800072696E7400507265686561740054756E6F
:1044900065004C6976652061646A757374205A0002
:1044A000496E666F2073637265656E0046696E695A
:1044B0007368696E67206D6F76656D656E747300E5
:1044C000417373697374004F6E6365004C6F75645C
:1044D00000536F756E6400537465616C7468004EB0
:1044E0006F726D616C004D4D55204D6F64650041DC
:1044F00075746F20706F7765720053696C656E74A8
:10450000004869676820706F776572004D6F646559
:104510000046616E7320636865636B004368616E7B
:1045200067652066696C616D656E7400466C6F77B7
:10453000005370656564002F2F20616374696F6E8E
:104540003A726573756D6564004E2F41004D616769
:104550006E65747320636F6D702E004F6666004F3A
:104560006E005A2D70726F6265206E722E004D655E
:1045700073680046616E207370656564004265640F
:10458000004E6F7A7A6C650053657474696E677358
:10459000005072696E742061626F727465640053BA
:1045A000746F70207072696E740046696C65206962
:1045B0006E636F6D706C6574652E20436F6E7469E9
:1045C0006E756520616E797761793F004261636B3A
:1045D000004D61696E002F2F20616374696F6E3A20
:1045E00063616E63656C0043616E6E6F7420656E0F
:1045F000746572207375626469723A20004D3234BA
:10460000004D323320257300052E2E004D3234002C
:104610004D3233202573006175746F25692E670054
:1046200047312045252D302E336620463237303035
:10463000004D38330022206661696C65643A20427F
:1046400075666665722066756C6C2100456E7175C5
:1046500065696E6720746F207468652066726F6E7E
:10466000743A2022004572726F723A002200456E41
:10467000717565696E6720746F2074686520667255
:104680006F6E743A2022006563686F3A0001021071
:10469000202008081020401020408002010201085C
:1046A000040201010204081020408080402010080C
:1046B0000402018004020180402010080402010865
:1046C00004020101020408102040800102040810C5
:1046D00020408010080408801020400440801020F2
:1046E00040048000002200250028002B002E00310D
:1046F00000340002010000050108010B0105050559
:1047000005070508080808020202020A0A08080448
:104710000404040101010101010101030303030376
:10472000030303040707070C0C0C0C0C0C0C0C0205
:1047300002020206060606060606060B0B0B0B0B0C
:104740000B0B0B07070A0A0A0A0A0A0505050404E7
:1047500004080804454550524F4D204572726F724F
:10476000004D494E54454D502042454420666978DD
:104770006564004D494E54454D5020484F54454EB8
:1047800044206669786564000000000000110A0496
:1047900000002100240027002A002D0030003300F3
:1047A00001010000040107010A01000020002300AC
:1047B000260029002C002F00320000010000030118
:1047C0000601090100000A0B02090C0D0E0807037F
:1047D00004010000000000000000000000000000D4
:1047E00000000000000000000000000000000000C9
:1047F0001211100000000000000000000000000086
:1048000000000000000000000000000000000000A8
:10481000000000000000000000004572726F72206E
:104820002D20737461746963206D656D6F727920DA
:10483000686173206265656E206F76657277726954
:104840007474656E00436172642072656D6F766585
:1048500064005072757361206933204D4B32204FD4
:104860004B2E005072696E746572206E6F7A7A6C8E
:1048700065206469616D657465722064696666654A
:1048800072732066726F6D2074686520472D636FA8
:1048900064652E20506C6561736520636865636B89
:1048A000207468652076616C756520696E2073657B
:1048B0007474696E67732E205072696E7420636120
:1048C0006E63656C6C65642E005072696E746572FF
:1048D000206E6F7A7A6C65206469616D65746572AB
:1048E00020646966666572732066726F6D207468F5
:1048F0006520472D636F64652E20436F6E74696E6B
:1049000075653F0053656C662074657374204F4B6A
:104910000053656C662074657374207374617274DF
:104920002020002573206C6576656C2065787065A5
:10493000637465640046616C7365207472696767AF
:104940006572696E670053776170706564004672C6
:104950006F6E742F6C6566742066616E73004178AB
:1049600069730041786973206C656E677468004CE8
:104970006F6F73652070756C6C657900456E64733C
:10498000746F70206E6F742068697400456E647374
:10499000746F70004D6F746F7200456E6473746F46
:1049A000707300576972696E67206572726F72006A
:1049B000426564202F20486561746572004E6F74F3
:1049C00020636F6E6E65637465640048656174652D
:1049D000722F546865726D6973746F7200506C65E4
:1049E00061736520636865636B203A0053656C668C
:1049F00074657374206572726F7220210046696C51
:104A0000616D656E742073656E736F7200507269AC
:104A10006E742066616E3A004578747275646572D2
:104A20002066616E3A0043616C6962726174696EFE
:104A30006720686F6D650053656C667465737420DC
:104A40006661696C6564202000416C6C20636F7244
:104A50007265637420202020202000436865636B0A
:104A6000696E672073656E736F72732000436865AB
:104A7000636B696E6720686F74656E642020004305
:104A80006865636B696E6720626564202020202062
:104A900000436865636B696E67205A2061786973AB
:104AA000202000436865636B696E67205920617838
:104AB0006973202000436865636B696E6720582026
:104AC00061786973202000436865636B696E6720B5
:104AD000656E6473746F7073004D38340047312015
:104AE0005A313520463130303000473238205700B7
:104AF0006C63645F73656C66636865636B5F617844
:104B000069732025642C2025640A002D2D2D2D2D60
:104B10002D2D2D2D2D2D2D2D2D2D2D2D2D2D2D00F2
:104B20004E6F20307846462072656365697665640D
:104B30000053656E64696E672030784646001F1F1B
:104B40001F1F1F1F1F1F2E002E004E6F7720667223
:104B50006573682066696C653A20004E6F77206443
:104B60006F696E672066696C653A20002220706F5D
:104B700073002220706172656E743A2200535542B0
:104B8000524F5554494E452043414C4C207461725C
:104B90006765743A22002E005344206361726420DA
:104BA0006F6B006F70656E526F6F74206661696C19
:104BB000656400766F6C756D652E696E697420662C
:104BC00061696C656400534420696E697420666194
:104BD000696C0057726974696E6720746F2066692A
:104BE0006C653A200046696C652073656C6563747A
:104BF0006564002053697A653A200046696C652037
:104C00006F70656E65643A2000747279696E672012
:104C1000746F2063616C6C207375622D67636F64C1
:104C2000652066696C6573207769746820746F6F9E
:104C3000206D616E79206C6576656C732E006F70E7
:104C4000656E206661696C65642C2046696C653A06
:104C50002000536F7274696E672066696C6573001B
:104C6000536F6D652066696C65732077696C6C2085
:104C70006E6F7420626520736F727465642E204DB0
:104C800061782E204E6F2E206F662066696C6573EA
:104C900020696E203120666F6C64657220666F72C9
:104CA00020736F7274696E67206973203130302E03
:104CB00000506C6561736520726573746172740075
:104CC000252D3773003A200025642F3600252D321C
:104CD00030530020202020202020202020202020B1
:104CE00020202020202000203A20002020202020EA
:104CF00020202020202020202020202020202000D4
:104D0000252D32307300202020202020202020203C
:104D10002020200025730025632533642F2564257A
:104D200063005A25362E32662563005A2020202D36
:104D30002D2D200025632533642525002D2D2D00E4
:104D400025336868640025335325337325250055C2
:104D500053420020202000205344002025753E258A
:104D60007500203F3E257500204625750020463FF2
:104D70000020463020200025632D2D3A2D2D2020A7
:104D80000025632533756820256325630025632589
:104D90003032753A25303275256325630050494E0F
:104DA00044412048656174696E670043616C6962C3
:104DB000726174696F6E20646F6E650043616C6927
:104DC00062726174696E67205A0042656420646F84
:104DD0006E65004265642048656174696E670048CD
:104DE000656174696E6720646F6E652E0048656149
:104DF00074696E67006572726F723A20756E6B6EC1
:104E00006F776E206D6F76650A006E6F206D6F761E
:104E1000650A00542D636F64650A00756E6C6F61DE
:104E2000640A006C6F61640A006D6D755F6765747C
:104E30005F726573706F6E7365202D2062656769A0
:104E40006E206D6F76653A20006D6D755F676574D5
:104E50005F726573706F6E73652829207265747553
:104E6000726E696E673A2025640A00556E6C6F6138
:104E700064696E672066696E697368656420320ACA
:104E800000556E6C6F616420320A00556E6C6F6164
:104E900064696E672066696E697368656420310AAB
:104EA00000556E6C6F616420310A004D4D552073C2
:104EB000746172747320726573706F6E64696E676B
:104EC0000A004D4D55206E6F7420726573706F6EC1
:104ED00064696E670A0046696C616D656E74206F67
:104EE0007574206F662072616E6765202564200AE4
:104EF000000000803F555585410000803F0000C8FC
:104F00004100000040555505420000C03F000048E8
:104F1000420000204055558542000070C1ABAAA652
:104F200042000060C10000A0410000C0C00000209D
:104F30004100002041ABAA3A41000020C15555D59F
:104F400040000048C2555505424D373031204534A8
:104F5000004D373031204533004D37303120453258
:104F6000004D373031204531004D3730312045304C
:104F70000046696C616D656E74206E72206F757489
:104F8000206F662072616E676521004D4D55204F80
:104F90004B2E20526573756D696E672E2E2E004D57
:104FA0004D55204F4B2E20526573756D696E6720ED
:104FB000706F736974696F6E2E2E2E004D4D5520E3
:104FC0004F4B2E20526573756D696E672074656D49
:104FD00070657261747572652E2E2E004669782098
:104FE00074686520697373756520616E64207468E8
:104FF000656E20707265737320627574746F6E20B5
:105000006F6E204D4D5520756E69742E005072657F
:10501000737320746865206B6E6F6220746F2072EA
:105020006573756D65206E6F7A7A6C652074656D39
:1050300070657261747572652E004D4D55206E65F8
:10504000656473207573657220617474656E74692C
:105050006F6E2E00506C656173652072656D6F76A2
:10506000652066696C616D656E7420616E64207484
:1050700068656E20707265737320746865206B6E4E
:105080006F622E00456A656374696E672066696C9D
:10509000616D656E74004D4D55206C6F61642066C6
:1050A00061696C656420202020200025632533641D
:1050B0002F25642563000000A0400000A0400000F0
:1050C000004000007A43333354439AD95143FFFFE1
:1050D000FF3E003E0020003E003E002000332E39FF
:1050E0002E302D524331007263006265746100619D
:1050F0006C70686100646576004E6F0059657300DE
:1051000047312058352E302045342E30204631305E
:1051100030302E30004731205A302E323020463188
:105120003030302E30004731205835352E30204574
:1051300032352046313430302E3000473120592D61
:10514000322E302046313030302E3000473120585A
:105150003234302E30204532352E30202046323247
:1051600030302E30004739322045302E3000473164
:10517000205A302E332046313030302E3000473127
:10518000205835352E302045382E302046323030EC
:10519000302E300047312058352E30204533322E06
:1051A000302046313830302E3000473120583535E8
:1051B0002E30204533322E302046313037332E30DA
:1051C000004731204634303030004D3230342053E7
:1051D00031303030004731205A35204637323030B8
:1051E0002E30303000473120452D312E35303030D3
:1051F000302046323130302E3030303030004D38B3
:1052000033004739300047323100473932204530CA
:105210002E30004731205835302059353520453360
:105220002E3632373733004731205832303020594C
:1052300035352045302E3439333836004731205843
:10524000323030205937352045332E363237373318
:1052500000473120583530205937352045302E341D
:105260003933383600473120583530205939352008
:1052700045332E36323737330047312058323030FD
:10528000205939352045302E3439333836004731EE
:10529000205832303020593131352045332E3632C6
:1052A00037373300473120583530205931313520D8
:1052B00045302E34393338360047312058353020C8
:1052C000593133352045332E3632373733004731A5
:1052D000205832303020593133352045302E363683
:1052E000313734004731205832303020593135358C
:1052F0002045322E3632373733004731205831308F
:105300003020593135352045320047312058373566
:1053100020593135352045322E3500473120463170
:10532000303830004731205A302E31353020463762
:105330003230302E3030300047312058353020594F
:10534000313535004739322045302E30004732386C
:10535000004D313039004D313930004D313037009A
:10536000542564004731205A302E342046313030E5
:10537000302E3000473120592D332E302046313029
:1053800030302E30004D3833004731205831303026
:105390002E30204531322E352046313030302E30FF
:1053A000004731205836302E302045392E302046E7
:1053B000313030302E3000AA5194517E516E5165FB
:1053C000514C513B512651155100510A520652027F
:1053D00052FE51E551D551CA51C15147312058357E
:1053E00030205933352045252D2E3366003853247F
:1053F000531B530A53FA52E452CE52B952A4528E5E
:10540000527952655251523C5227521352496E768C
:10541000616C6964205049442063616C2E20726580
:1054200073756C74732E204E6F742073746F726575
:105430006420746F20454550524F4D2E004D35303D
:1054400030004731205A3135204631353030004761
:105450003931004731205835302059313930204515
:105460003020463730303000473930004D38340076
:105470004D373032204300473120583130205931E8
:105480003830204634303030004731205A31302017
:1054900046313330302E303030004D3134302053EF
:1054A00030004D31303420533000473120452D300D
:1054B0002E30373530302046323130302E303030DB
:1054C0003030004D3130370025530A20252D31363C
:1054D0002E313653252D33640A20252D31362E31B9
:1054E0003653252D33640025530A20252D31362EC1
:1054F000313653252D33640A20252D31362E313691
:1055000053252D33640A20252D31362E313653256F
:105510002D33640020257325336401200A004D31AA
:105520003137204669727374206C6179657220632B
:10553000616C2E005049442063616C2E2066696EB8
:105540006973686564005049442063616C2E2020B3
:10555000202020202020202020005072696E7420FE
:10556000706175736564005072696E742046414EB7
:10557000004E6F7A7A6C652046414E00546F74611C
:105580006C004C617374207072696E74004D4D55DF
:10559000206C6F6164206661696C73004D4D55200D
:1055A0006661696C73004C617374207072696E740B
:1055B000206661696C75726573004D4D5520706F82
:1055C000776572206661696C73004D4D55206C6F74
:1055D0006164206661696C73004D4D552066616998
:1055E0006C7300546F74616C206661696C757265D0
:1055F00073002F2F20616374696F6E3A7061757349
:105600006564002573202534642052504D0A2573AB
:10561000202534642052504D0A000000E442F8FF77
:105620007F3F000057430000C2420000E4420000F8
:105630004343000040410000C2424E6F742073702B
:10564000696E6E696E67005370696E6E696E670091
:105650004C65667420686F74656E642066616E3F89
:105660000046726F6E74207072696E742066616E8F
:105670003F0046616E207465737400526573656EF9
:10568000640025533A20256C640A25530A00D7018B
:10569000FB0111241FBECFEFD1E2DEBFCDBF00E082
:1056A0000CBF16E0A0E0B2E0EEE3F3E103E00BBFD5
:1056B00002C007900D92A631B107D9F72AE1A6E101
:1056C000B6E001C01D92A43AB207E1F71BE2C8E4BC
:1056D000DBE200E006C021970109802FFE010F9454
:1056E000BB88C734D10780E00807A9F70F94CC66C0
:1056F0000D948E890C9400002F923F924F925F92EE
:105700006F927F928F929F92AF92BF92CF92DF92D1
:10571000EF92FF920F931F93CF93DF93CDB7DEB736
:10572000CB57D1090FB6F894DEBF0FBECDBF809125
:10573000A3109091A410892B11F40C94CF6182E0F6
:105740008093640281E293E00E9456B28823B1F014
:105750008091B10E9091B20E6AE270E005960F94BE
:105760001089009711F0DC011C928091B10E90918C
:10577000B20E05960F94991C0C940E5E86E293E08F
:105780000E9456B2882309F42FC28CE293E00E9453
:1057900056B2882391F08091F417882311F40C9469
:1057A0000E5E0E9498B86093AD147093AE1480930F
:1057B000AF149093B0140C940E5E81E393E00E94BA
:1057C00056B2882349F08091FF0F8F938091FE0F8E
:1057D0008F9381E295E144C085E393E00E9456B245
:1057E00081110C940E5E8FE393E00E9456B28823E1
:1057F00029F14091891A50918A1A2CE3249FC00103
:10580000259F900D11249F938F934091871A50915B
:10581000881A249FC001259F900D11249F938F9378
:105820008AE095E19F938F930F94DA7E0F900F900B
:105830000F900F900F900F900C940E5E83E493E006
:105840000E9456B28823C9F08091F417882391F002
:10585000809184068F93809183068F9387E095E1F2
:105860009F938F930F94DA7E0F900F900F900F906D
:105870000C940E5E85EF94E1DBC086E493E00E9419
:1058800056B2882321F0109281060C940E5E8AE4B1
:1058900093E00E9456B2882361F060E085EA9FE0C1
:1058A0000F94548361E08CE19EE00E94EA9A0C948C
:1058B0000E5E8FE493E00E9456B2882331F084E2BA
:1058C00095E10E94F2F30C940E5E86E593E00E944F
:1058D00056B2882359F08091F417882321F00D9453
:1058E00000F00C940E5E8CE593E0AEC08EE693E083
:1058F0000E9456B2882339F18091B10E9091B20E78
:1059000041E061E003960F94BD288091E0169091EC
:10591000E116A091E216B091E31680938D17909353
:105920008E17A0938F17B093901788ED96E10E9481
:105930005FEB8C010E941EB50A30110531F70F9400
:105940001E110C940E5E81E793E00E9456B28823EC
:10595000A9F041E068EB71E089E190E00E94789E57
:1059600081E0809393068091B10E9091B20E41E058
:1059700060E004960F94BD280C940E5E85E793E0DA
:105980000E9456B2882309F457C08091F4178823E7
:1059900009F44CC01092820660919E1A70919F1A71
:1059A0008BE390E00F94597E60919E1A70919F1A3C
:1059B00083E590E00F94597E19821B821A820E941F
:1059C00098B87B836A8381E0898300E010E0FF243C
:1059D000F3940E945AB41816190684F40E947AB4FB
:1059E000F092820660919E1A70919F1A90E00F9437
:1059F000597E0F5F1F4F10928206EBCF64E670E076
:105A0000CE0101960E94F39C811103C00331110560
:105A100004F381E08093820660919E1A70919F1A30
:105A20008AE090E00F94597E0C940E5E83E193E13E
:105A30000F94027F0C940E5E88E793E00E9456B2AA
:105A4000882331F08CE793E00E9467B60C940E5ED9
:105A50008BE893E00E9456B2882319F08FE893E018
:105A6000F3CF8DEA93E00E9456B281110C940E5E42
:105A700082EB93E00E9456B2882371F081EA9DE0A8
:105A80000F943383BBE08B9FC001112460E070E072
:105A9000805B924F0C942E5E85EB93E00E9456B291
:105AA000882361F00E9498B86093A9147093AA1497
:105AB0008093AB149093AC140C940E5E8AEB93E03D
:105AC0000E9456B2882359F00E94C07C40E060E0FA
:105AD00070E084E690E00E94789E0C940E5E8DEB60
